:100000000C9434000C9449000C9449000C94490061
:100010000C9449000C9449000C9449000C9449003C
:100020000C9449000C9449000C9449000C9449002C
:100030000C9449000C9449000C9449000C9449001C
:100040000C9449000C9449000C9449000C9449000C
:100050000C9449000C9449000C9449000C944900FC
:100060000C9449000C94490011241FBECFEFD8E036
:10007000DEBFCDBF11E0A0E0B1E0E2EEF7E002C0EC
:1000800005900D92A837B107D9F70E9494000C94FF
:10009000EF030C940000611134C028989BB19F704D
:1000A000282F207F922B9BB945E04A95F1F700005D
:1000B000299A95E09A95F1F70000299840EF4A9522
:1000C000F1F79BB19F7040E1849F90011124922B26
:1000D0009BB995E09A95F1F70000299A45E04A9579
:1000E000F1F70000299890EF9A95F1F7611108C097
:1000F000843030F48FE39FE10197F1F700C00000F6
:100100000895289ACBCF60E081E00C944B00CF9308
:10011000DF93EC018991811103C0DF91CF910895A4
:1001200061E00E944B00F6CFCF93DF93CDB7DEB7EF
:10013000C05AD1090FB6F894DEBF0FBECDBF8FEF06
:1001400084B98AB915B817B888B92A9A289829980D
:100150000FEF19EF20E0015010402040E1F700C000
:1001600000008BB18F7080638BB935E03A95F1F761
:100170000000299A45E04A95F1F70000299850EFD0
:100180005A95F1F78FE19EE40197F1F700C0000066
:1001900095E09A95F1F70000299AA5E0AA95F1F764
:1001A00000002998B0EFBA95F1F78FE193E001973D
:1001B000F1F700C0000095E09A95F1F70000299A48
:1001C000A5E0AA95F1F700002998B0EFBA95F1F7EC
:1001D0008BB18F7080628BB905E00A95F1F7000052
:1001E000299A15E01A95F1F70000299820EF2A9531
:1001F000F1F760E088E20E944B0060E088E00E9436
:100200004B0060E081E00E944B0060E08CE00E94C7
:100210004B0060E080E80E944B0080E4E0E0F1E009
:10022000DE01119601900D928A95E1F7AE014F5FC4
:100230005F4F5A0110E460E0812F0E944B00D12CE7
:10024000C12CF501EC0DFD1D61E080810E944B0089
:100250005FEFC51AD50A88E0C816D10491F7185F78
:1002600098E0A90EB11C103631F7DE0111965D0140
:1002700060E0812F0E944B00D12CC12CF501EC0DC8
:10028000FD1D61E080A10E944B00BFEFCB1ADB0A8D
:1002900008E0C016D10491F7185F28E0A20EB11C47
:1002A000103831F760E0812F0E944B0061E080E858
:1002B000810F0E944B001F5F1438A1F710EC60E023
:1002C000812F0E944B0061E084E4810F0E944B006B
:1002D0001F5F143CA1F73FEF43ED50E33150404026
:1002E0005040E1F700C000000E94830060E080E819
:1002F0000E944B0080E491E00E948700329925C261
:10030000EE0CFF1CE1E9F0E0EC0FFD1FEE0DFF1D10
:1003100090E080E02191319127703327DE01AF56C4
:10032000BF4F50E040E04817590709F013C2DC0105
:10033000AA0FBB1F01E910E00C0F1D1FA00FB11F7A
:100340002D933C9301968830910521F7FE01EF57DC
:10035000FF4FCF56DF4F88819981C159D04091839B
:100360008083CD56DF4F88819981C359D0409187D2
:100370008087CB56DF4F88819981C559D0409383C0
:100380008283C956DF4F88819981C759D0409387AE
:100390008287C756DF4F88819981C959D04095839C
:1003A0008483C556DF4F88819981CB59D04095878A
:1003B0008487C356DF4F88819981CD59D040978378
:1003C0008683C156DF4F88819981CF59D040978766
:1003D00086877F019E012F5B3F4FC901670170E057
:1003E00060E0D6014D915D916D01DA0113E0AA0F35
:1003F000BB1F1A95E1F701E010E00C0F1D1FA00FC5
:10040000B11F4D014430510508F4ADC150E040E04A
:10041000D4011D914D015C01A40EB51ED5011C93A4
:100420004F5F5F4F4830510599F76F5F7F4F0896D8
:1004300064307105B1F6B8E0EB0EF11C205E3F4F61
:100440002E173F0751F60E9483008E010F5B1F4F4E
:10045000680110E460E0812F0E944B00F12CE12C38
:10046000F601EE0DFF1D61E080810E944B002FEF31
:10047000E21AF20A38E0E316F10491F7185F48E057
:10048000C40ED11C103631F7CE018F5B9F4F6C012B
:1004900060E0812F0E944B00F12CE12CF601EE0D63
:1004A000FF1D61E080A10E944B009FEFE91AF90A4D
:1004B000A8E0EA16F10491F7185FB8E0CB0ED11C62
:1004C000103831F760E0812F0E944B0061E080E836
:1004D000810F0E944B001F5F1438A1F710EC60E001
:1004E000812F0E944B0061E084E4810F0E944B0049
:1004F0001F5F143CA1F7B12CA12CE0E8EE2EF12CEB
:10050000D12CC12CF1E42F2E312C2C0E3D1E00E2FB
:10051000200E311C309922C01FEFE11AF10A28E0A9
:10052000E216F1040CF02FC134E0E316F1042CF4D0
:1005300060E080E88E0D0E944B00C701049704978D
:1005400028F460E08CEB8E0D0E944B00309BFECFB8
:100550008FE39CE90197F1F700C0000060E08FE0B5
:100560000E944B00319998C0CD2809F40FC1F701C2
:1005700063E0EE0FFF1F6A95E1F7A1E4B0E0AC0F76
:10058000BD1FEA0FFB1FD20173E0AA0FBB1F7A95B4
:10059000E1F701E410E00C0F1D1FA00FB11F90E068
:1005A00080E02C9130813C93208301963196119606
:1005B00088309105B1F75FEFA51AB50AD12CC12C8F
:1005C000AE014F5B5F4F4A0110E460E0812F0E9453
:1005D0004B00712C612CF401E60DF71D61E0808168
:1005E0000E944B008FEF681A780A98E06916710430
:1005F00091F7185FA8E08A0E911C103631F79E0122
:100600002F5B3F4F490160E0812F0E944B00712C0E
:10061000612CF401E60DF71D61E080A10E944B0002
:100620005FEF651A750A88E06816710491F7185F24
:1006300098E0890E911C103831F70E94830060E029
:10064000812F0E944B0061E080E8810F0E944B00E7
:100650001F5F1438A1F710EC60E0812F0E944B005F
:1006600061E084E4810F0E944B001F5F143CA1F7FE
:10067000A1E0CA16D10441F460E086E80E944B0074
:100680008CE491E00E948700319BFECF8FE39CE9D0
:100690000197F1F700C00000AE014F5F5F4F9E0170
:1006A0002F5B3F4F61E070E090E080E0F901E80FE0
:1006B000F91FA081FA01E80FF91FE081AE136BC0AA
:1006C00001968830910591F7285F3F4F485F5F4F53
:1006D0002215330549F7FE013196AE014F5B5F4F9E
:1006E00090E080E0DA01A80FB91F90961C91DF011D
:1006F000A80FB91F9096AC911A1350C0019688307C
:10070000910581F7485F5F4F38962417350741F709
:100710006130710509F045C00E94830060E080E807
:100720000E944B0084E591E00E94870060E080EC2D
:100730000E944B0080E691E00E948700FFCFF12CE1
:10074000E12C873F910509F07C01C7010196329B9E
:10075000F6CFD4CD6D917D912617370709F4F3CDEF
:100760004F5F5F4FE0CD50E040E0D4011D914D015F
:100770005C01A40EB51ED5011C934F5F5F4F48303E
:10078000510599F752CEF12CE12CD2CE2701CC2481
:10079000C394D12C15CF70E060E096CF70E060E09C
:1007A000B1CF9BE0A916B1049CF00E94830060E0E9
:1007B00080E80E944B0084E591E00E94870060E0A1
:1007C00080EC0E944B008CE691E00E948700B6CF3F
:1007D000AFE3BFE11197F1F700C000009BCEF894A2
:0207E000FFCF49
:1007E2001F1F1F1F1F1E18101F1F1F1C10030F0F7C
:1007F2001F1F1F0701181E1F1F1F1F1F1F0F03018F
:1008020010181E1F1F1F1F1F0F0703101C1F1F1F63
:100812001E1E1801071F1F1F01030F1F1F1F1F1F6F
:10082200505245535320535441525400636F7069E0
:1008320061646F0046696D206465206A6F676F00AE
:10084200566F63652076656E63657500566F6365E6
:080852002070657264657500F9
:00000001FF
